:10000000B8C00000D3C00000D1C00000CFC00000C5
:10001000CDC00000CBC00000C9C00000C7C00000B8
:10002000C5C00000C3C000000EC50000BFC0000076
:10003000BDC00000BBC00000B9C00000B7C00000D8
:10004000B5C00000B3C00000B1C00000AFC00000E8
:10005000ADC00000ABC00000A9C00000A7C00000F8
:10006000A5C00000A3C00000A1C000009FC0000008
:100070009DC000009BC0000099C0000097C0000018
:1000800095C0000093C0000091C000008FC0000028
:100090008DC000008BC0000005010905A1011500FD
:1000A0002501350045017501951005091901291033
:1000B000810205012507463B017504950165140978
:1000C00039814265009501810126FF0046FF000944
:1000D000300931093209357508950481020600FF9F
:1000E0000920950181020A212695089102C012017A
:1000F0000002000000400D0F92000001010200010B
:100100000902290001010080FA090400000203002D
:1001100000000921110100012256000705020340D9
:10012000000507058103400005040309041C03487A
:10013000004F0052004900200043004F002E002CC9
:10014000004C00540044002E000000240350004FD7
:10015000004B004B0045004E00200043004F004E76
:1001600000540052004F004C004C0045005200006B
:10017000000011241FBECFEFD0E2DEBFCDBF11E0E3
:10018000A0E0B1E0EAEEFEE000E00BBF02C00790A5
:100190000D92A03AB107D9F711E0A0EAB1E001C091
:1001A0001D92A43CB107E1F7ADD19DC629CF0895BA
:1001B00008950895CF93DF93DC0138E0FC01832F8D
:1001C00011928A95E9F720E813962C9313971496C9
:1001D0002C93149715962C93159716962C93169787
:1001E00012963C9312978091A1019091A20118164A
:1001F00019066CF4EFEAF1E088E001900D9281506D
:10020000E1F78091A1019091A201019702C1809133
:10021000A001823049F1833030F4882319F1813014
:1002200009F0EDC009C0843009F4E6C08430F0F074
:10023000853009F0E4C0F1C01092AA011092A90122
:1002400011961C921E9213962C93139714962C932E
:10025000149715962C93159716962C93169712961D
:100260003C93129782E0C9C083E0C7C08091A90186
:100270009091AA01FC01EE0FFF1FE80FF91FE0505B
:10028000FF4FE081E53009F447C0E63080F4E2300A
:1002900019F1E33030F4EE23D9F0E13009F053C026
:1002A0001FC0E33011F1E43009F04DC030C0E83038
:1002B000C1F1E93030F4E630E9F0E73009F043C04D
:1002C0001EC0EA3099F1EA30A0F1EC30E1F536C019
:1002D00014961C92149748C013961C92139744C00E
:1002E0008FEF14968C9314973FC08FEF13968C93D7
:1002F00013973AC08D919C911197846004C08D91A1
:100300009C911197826011969C938E932DC08D9134
:100310009C9111978860F7CF8D919C911197816086
:10032000F2CF8D919C9111978061EDCF14961C9224
:1003300014978D919C9111978062E5CF8D919C913E
:1003400011978063E0CF80E813968C9313971496EF
:100350008C93149715968C93159716968C931697E5
:1003600088E012968C9312978091AB019091AC012A
:1003700001969093AC018093AB014091A9015091FB
:10038000AA01FA01EE0FFF1FE40FF51FE050FF4F27
:10039000218132812817390750F44F5F5F4F509306
:1003A000AA014093A9011092AC011092AB01809177
:1003B000A9019091AA01C59714F187E090E090936C
:1003C000AA018093A9011092AC011092AB0182E0C6
:1003D0008093A00180E813968C93139714968C93C6
:1003E000149715968C93159716968C93169788E00C
:1003F00012968C93129703C085E08093A001CFEAF8
:10040000D1E0FD0188E0019009928150E1F782E09E
:1004100090E09093A2018093A101DF91CF91089584
:10042000FF920F931F93DF93CF93CDB7DEB728973B
:100430000FB6F894DEBF0FBECDBF8091BB018430F4
:10044000B9F582E08093E9008091E80082FF14C052
:100450008091E80085FF0BC08E010F5F1F4FC80120
:1004600067E070E040E050E05BD18823C1F7809105
:10047000E8008B778093E80081E08093E900809129
:10048000E80080FF15C08E010F5F1F4FC80192DE8C
:10049000F02E012F8F2D902F68E070E040E050E0AB
:1004A00091D18823B9F78091E8008E778093E80096
:1004B00028960FB6F894DEBF0FBECDBFCF91DF9167
:1004C0001F910F91FF90089582E060EC42E3CCD140
:1004D00081E061EC42E3C8C184B7877F84BF88E1D3
:1004E0000FB6F89480936000109260000FBE80E019
:1004F00090E020E80FB6F8942093610080936100AB
:100500000FBE86C2E9DF78948BDFD8D4FDCFDA0145
:100510009330B1F0943028F4913041F0923079F575
:100520000AC0913211F1923251F524C0EEEEF0E0A2
:1005300022E130E028C0E0E0F1E029E230E023C031
:10054000813049F0813018F08230C9F40AC0E9E204
:10055000F1E0849103C0EDE2F1E08491282F30E0D6
:1005600012C0EBE4F1E08491F9CFE2E1F1E029E09F
:1005700030E009C0E8E9F0E026E530E004C0E0E062
:10058000F0E020E030E0ED93FC93C90108959C0178
:100590004091C2015091C3014617570718F4F90161
:1005A00090E03DC06115710511F0AB01F8CF80916D
:1005B000E8008E778093E80040E050E0F0CF809133
:1005C000BB01882309F441C0853009F440C0809103
:1005D000E80083FD3EC08091E80082FD30C080913C
:1005E000E80080FF1CC02091F2003091F30007C0AA
:1005F00081918093F100415050402F5F3F4F411552
:10060000510519F02034310598F390E0203431057C
:1006100009F491E08091E8008E778093E80041151D
:10062000510569F6992359F60AC08091BB018823C8
:1006300061F0853061F08091E80083FD0AC080910F
:10064000E80082FFF2CF80E0089582E0089583E021
:10065000089581E008959C014091C2015091C30129
:100660004617570718F4F90190E03EC0611571056F
:1006700011F0AB01F8CF8091E8008E778093E8000D
:1006800040E050E0F0CF8091BB01882309F442C0E4
:10069000853009F441C08091E80083FD3FC080911E
:1006A000E80082FD31C08091E80080FF1DC02091EC
:1006B000F2003091F30008C084918093F1003196EC
:1006C000415050402F5F3F4F4115510519F02034E4
:1006D000310590F390E02034310509F491E08091E8
:1006E000E8008E778093E8004115510561F6992363
:1006F00051F60AC08091BB01882361F0853061F01A
:100700008091E80083FD0AC08091E80082FFF2CF6B
:1007100080E0089582E0089583E0089581E00895DF
:10072000BF92CF92DF92EF92FF920F931F93CF93DE
:10073000DF93182F092F7B016A01EFD0B82E882391
:10074000B1F5812F902F9C01E901C114D10439F03A
:10075000F60180819181E81AF90AC80FD91F00E0DB
:1007600010E022C08091E80085FD16C08091E8006D
:100770008B778093E800A2D3C114D10449F0F6012D
:1007800080819181800F911F9183808385E010C0CB
:10079000C4D0882349F00CC08091F100899308945B
:1007A000E108F1080F5F1F4FE114F104D9F68B2D1A
:1007B000DF91CF911F910F91FF90EF90DF90CF903D
:1007C000BF900895BF92CF92DF92EF92FF920F9366
:1007D0001F93CF93DF93182F092F7B016A019DD0C0
:1007E000B82E8823B1F5812F902F9C01E901C11407
:1007F000D10439F0F60180819181E81AF90AC80F15
:10080000D91F00E010E022C08091E80085FD16C0ED
:100810008091E8008E778093E80050D3C114D10412
:1008200049F0F60180819181800F911F918380832F
:1008300085E010C072D0882349F00CC08991809364
:10084000F1000894E108F1080F5F1F4FE114F10473
:10085000D9F68B2DDF91CF911F910F91FF90EF90E3
:10086000DF90CF90BF900895382F282F2EC0822F71
:100870008F708093E900231721F4762F942F50E096
:1008800006C07091EC009091ED005091F00091FF46
:100890001BC08091EB008E7F8093EB008091ED0078
:1008A0008D7F8093ED008091EB0081608093EB0061
:1008B0007093EC009093ED005093F0008091EE0067
:1008C00087FD02C080E008952F5F273080F23F70DF
:1008D0003093E90081E008958091BC0188239CF465
:1008E00004C08091BB018823B9F08091E80082FFA9
:1008F000F8CF8091E8008B778093E800089580918D
:10090000BB01882349F08091E80080FFF8CF8091F7
:10091000E8008E778093E80008954091E4005091BC
:10092000E50024E68091EC0080FF24C08091E8007F
:1009300080FD1EC08091BB01882311F482E00895E0
:10094000853011F483E008958091EB0085FF02C0AB
:1009500081E008958091E4009091E5008417950767
:1009600009F3222311F484E008952150AC01DACF79
:1009700080E008958091E80082FFDCCFF9CFEF920C
:10098000FF920F931F9352D059D008ED10E0F80159
:1009900080818F77808380818068808380818F7D54
:1009A0008083E7EDF0E080818068808319BC10923D
:1009B000BB011092B7011092B9011092B80180EEFC
:1009C000E82EF12CF70180818B7F8083F8018081F4
:1009D0008160808380E060E042E346DFE1EEF0E0AA
:1009E00080818E7F8083E2EEF0E080818160808371
:1009F000808188608083F70180818E7F8083F80109
:100A00008081806180831F910F91FF90EF90089506
:100A1000E8EDF0E080818F7E8083E7EDF0E080817B
:100A20008160808381E08093BA01A9CFE8EDF0E096
:100A300080818C7F80831092E20008951092DA000A
:100A40001092E10008951F920F920FB60F920BB60D
:100A50000F9211242F933F934F935F936F937F9344
:100A60008F939F93AF93BF93EF93FF938091E10098
:100A700082FF0AC08091E20082FF06C08091E100FF
:100A80008B7F8093E10019D28091DA0080FF1DC036
:100A90008091D80080FF19C08091DA008E7F80930A
:100AA000DA008091D90080FF0CC084E189BD86E125
:100AB00089BD09B400FEFDCF81E08093BB0177DBE7
:100AC00004C019BC1092BB0173DB8091E10080FF70
:100AD00018C08091E20080FF14C08091E2008E7FF8
:100AE0008093E2008091E20080618093E200809137
:100AF000D80080628093D80019BC85E08093BB0148
:100B0000DCD18091E10084FF2FC08091E20084FF5E
:100B10002BC084E189BD86E189BD09B400FEFDCF0B
:100B20008091D8008F7D8093D8008091E1008F7EE6
:100B30008093E1008091E2008F7E8093E2008091BB
:100B4000E20081608093E2008091B701882311F078
:100B500084E007C08091E30087FD02C081E001C00E
:100B600083E08093BB01A9D18091E10083FF22C083
:100B70008091E20083FF1EC08091E100877F809317
:100B8000E10082E08093BB011092B7018091E10007
:100B90008E7F8093E1008091E2008E7F8093E2005F
:100BA0008091E20080618093E20080E060E042E3B7
:100BB0005BDE83D1FF91EF91BF91AF919F918F91B8
:100BC0007F916F915F914F913F912F910F900BBE4D
:100BD0000F900FBE0F901F9018951F93DF93CF9328
:100BE000CDB7DEB7AC970FB6F894DEBF0FBECDBF62
:100BF000ECEBF1E08091F100819321E0E43CF2071D
:100C0000C9F7D7DA8091E80083FF3FC18091BC012A
:100C10003091BD01353009F48DC0363040F43130AB
:100C2000E1F1313070F0333009F02FC136C0383087
:100C300009F4FDC0393009F40CC1363009F025C182
:100C40009CC0803821F0823809F01FC108C0909103
:100C5000B8018091B9018823B1F0926014C08091ED
:100C6000C0018F70873008F010C18093E900809137
:100C7000EB0090E025E0969587952A95E1F7982F6F
:100C800091701092E9008091E800877F8093E800DE
:100C90009093F1001092F100D5C0882319F08230B2
:100CA00009F0F3C090E08F719070009721F00297E7
:100CB00009F0EBC00CC08091BE01813009F0E5C0A5
:100CC0001092B901333081F58093B9012DC0809124
:100CD000BE01882349F52091C0012F70822F8150D9
:100CE000863008F0D2C02093E9008091EB0080FFAD
:100CF0001BC0333021F48091EB00806213C08091DF
:100D0000EB0080618093EB0081E090E002C0880FEF
:100D1000991F2A95E2F78093EA001092EA008091E9
:100D2000EB0088608093EB001092E9008091E8006E
:100D3000877F8BC0882309F0A8C01091BE011F7760
:100D40008091E3008078812B8093E3008091E8001C
:100D5000877F8093E800C0DD8091E80080FFFCCFB2
:100D60008091E30080688093E300112311F482E016
:100D700001C083E08093BB0188C08058823008F0B6
:100D800084C08091BE019091BF0123E08C3D920709
:100D900009F033C083E08C838AE28B837FB7F894B9
:100DA000DE0115966EE040E050E011E2E62FF0E043
:100DB00010935700849140FF03C082958F706F5F3E
:100DC0008F70282F30E08A3018F0C901C79602C012
:100DD000C901C0968D939D934F5F5F4F443151057C
:100DE00029F77FBF8091E800877F8093E800CE01DC
:100DF00003966AE270E0CBDB14C06091C001709191
:100E0000C101AE014F5F5F4F82DBBC01009709F467
:100E10003CC08091E800877F8093E80089819A81B7
:100E20001ADC8091E8008B778093E8002EC0803830
:100E300061F58091E800877F8093E8008091B70199
:100E40008093F1008091E8008E778093E80044DD84
:100E50001CC08823D1F49091BE019230B0F48091EF
:100E6000E800877F8093E8009093B70135DD80919B
:100E7000B701882331F48091E30087FD02C081E04F
:100E800001C084E08093BB011FDB8091E80083FFF9
:100E90000AC08091E800877F8093E8008091EB0092
:100EA00080628093EB00AC960FB6F894DEBF0FBE65
:100EB000CDBFCF91DF911F91089508951F93809129
:100EC000BB01882371F01091E9008091EC00109231
:100ED000E9008091E80083FF01C07FDE1F7010935E
:0A0EE000E9001F910895F894FFCF78
:100EEA000BFA000B0A000B05000B0A000B05000B9E
:100EFA0005000B05000B05000B05000205000B059C
:100F0A00000605000B05000005000B0500000500A2
:100F1A000B05000605000B3C000605000B05000644
:100F2A0005000B64000605000B28000305000B05ED
:100F3A00000105000B05000105000B050006050070
:100F4A000B96000405000B05000405000B1E0008A3
:100F5A0005000B05000605000B05000105000B0541
:100F6A00000105000B05000105000B050006050040
:100F7A000B14000705000B14000705000B320000D4
:00000001FF
